{
  "contractName": "Collector",
  "abi": [
    {
      "inputs": [
        {
          "internalType": "address",
          "name": "clEthUsd",
          "type": "address"
        }
      ],
      "stateMutability": "nonpayable",
      "type": "constructor"
    },
    {
      "inputs": [],
      "name": "noEthDeposited",
      "type": "error"
    },
    {
      "inputs": [],
      "name": "noEthSent",
      "type": "error"
    },
    {
      "inputs": [],
      "name": "noEthToWithdraw",
      "type": "error"
    },
    {
      "anonymous": false,
      "inputs": [
        {
          "indexed": true,
          "internalType": "address",
          "name": "previousOwner",
          "type": "address"
        },
        {
          "indexed": true,
          "internalType": "address",
          "name": "newOwner",
          "type": "address"
        }
      ],
      "name": "OwnershipTransferred",
      "type": "event"
    },
    {
      "inputs": [],
      "name": "ethUsdOracle",
      "outputs": [
        {
          "internalType": "contract AggregatorV3Interface",
          "name": "",
          "type": "address"
        }
      ],
      "stateMutability": "view",
      "type": "function"
    },
    {
      "inputs": [],
      "name": "oracleEthUsdPrice",
      "outputs": [
        {
          "internalType": "address",
          "name": "",
          "type": "address"
        }
      ],
      "stateMutability": "view",
      "type": "function"
    },
    {
      "inputs": [],
      "name": "owner",
      "outputs": [
        {
          "internalType": "address",
          "name": "",
          "type": "address"
        }
      ],
      "stateMutability": "view",
      "type": "function"
    },
    {
      "inputs": [],
      "name": "ownerEthAmountToWithdraw",
      "outputs": [
        {
          "internalType": "uint256",
          "name": "",
          "type": "uint256"
        }
      ],
      "stateMutability": "view",
      "type": "function"
    },
    {
      "inputs": [],
      "name": "renounceOwnership",
      "outputs": [],
      "stateMutability": "nonpayable",
      "type": "function"
    },
    {
      "inputs": [
        {
          "internalType": "address",
          "name": "newOwner",
          "type": "address"
        }
      ],
      "name": "transferOwnership",
      "outputs": [],
      "stateMutability": "nonpayable",
      "type": "function"
    },
    {
      "inputs": [],
      "name": "usdDecimals",
      "outputs": [
        {
          "internalType": "uint256",
          "name": "",
          "type": "uint256"
        }
      ],
      "stateMutability": "view",
      "type": "function"
    },
    {
      "inputs": [
        {
          "internalType": "address",
          "name": "user",
          "type": "address"
        }
      ],
      "name": "userEthDeposits",
      "outputs": [
        {
          "internalType": "uint256",
          "name": "amount",
          "type": "uint256"
        }
      ],
      "stateMutability": "view",
      "type": "function"
    },
    {
      "stateMutability": "payable",
      "type": "receive"
    },
    {
      "inputs": [],
      "name": "getLatestPrice",
      "outputs": [
        {
          "internalType": "int256",
          "name": "",
          "type": "int256"
        }
      ],
      "stateMutability": "view",
      "type": "function"
    },
    {
      "inputs": [],
      "name": "getPriceDecimals",
      "outputs": [
        {
          "internalType": "uint256",
          "name": "",
          "type": "uint256"
        }
      ],
      "stateMutability": "view",
      "type": "function"
    },
    {
      "inputs": [
        {
          "internalType": "address",
          "name": "user",
          "type": "address"
        }
      ],
      "name": "convertEthInUSD",
      "outputs": [
        {
          "internalType": "uint256",
          "name": "",
          "type": "uint256"
        }
      ],
      "stateMutability": "view",
      "type": "function"
    },
    {
      "inputs": [
        {
          "internalType": "uint256",
          "name": "usdAmount",
          "type": "uint256"
        }
      ],
      "name": "convertUSDInETH",
      "outputs": [
        {
          "internalType": "uint256",
          "name": "",
          "type": "uint256"
        }
      ],
      "stateMutability": "view",
      "type": "function"
    },
    {
      "inputs": [],
      "name": "getNativeCoinsBalance",
      "outputs": [
        {
          "internalType": "uint256",
          "name": "",
          "type": "uint256"
        }
      ],
      "stateMutability": "view",
      "type": "function"
    },
    {
      "inputs": [],
      "name": "userETHWithdraw",
      "outputs": [],
      "stateMutability": "nonpayable",
      "type": "function"
    }
  ],
  "bytecode": "0x60806040523480156200001157600080fd5b50604051620014dd380380620014dd833981810160405281019062000037919062000238565b620000576200004b6200010260201b60201c565b6200010a60201b60201c565b80600260006101000a81548173ffffffffffffffffffffffffffffffffffffffff021916908373ffffffffffffffffffffffffffffffffffffffff160217905550600260009054906101000a900473ffffffffffffffffffffffffffffffffffffffff16600360006101000a81548173ffffffffffffffffffffffffffffffffffffffff021916908373ffffffffffffffffffffffffffffffffffffffff160217905550506200026a565b600033905090565b60008060009054906101000a900473ffffffffffffffffffffffffffffffffffffffff169050816000806101000a81548173ffffffffffffffffffffffffffffffffffffffff021916908373ffffffffffffffffffffffffffffffffffffffff1602179055508173ffffffffffffffffffffffffffffffffffffffff168173ffffffffffffffffffffffffffffffffffffffff167f8be0079c531659141344cd1fd0a4f28419497f9722a3daafe3b4186f6b6457e060405160405180910390a35050565b600080fd5b600073ffffffffffffffffffffffffffffffffffffffff82169050919050565b60006200020082620001d3565b9050919050565b6200021281620001f3565b81146200021e57600080fd5b50565b600081519050620002328162000207565b92915050565b600060208284031215620002515762000250620001ce565b5b6000620002618482850162000221565b91505092915050565b611263806200027a6000396000f3fe6080604052600436106100e15760003560e01c80638da5cb5b1161007f578063ce553dbb11610059578063ce553dbb146102b4578063e74e171b146102f1578063e8769f101461031c578063f2fde38b14610333576100f1565b80638da5cb5b146102335780638e15f4731461025e5780638e70a79914610289576100f1565b80635ba8ba19116100bb5780635ba8ba191461018957806366a4b6c0146101c6578063715018a6146101f15780638a97f9c914610208576100f1565b80630ba85a82146100f65780631b30aafc14610133578063243da2ba1461015e576100f1565b366100f1576100ef3361035c565b005b600080fd5b34801561010257600080fd5b5061011d60048036038101906101189190610b03565b6103ef565b60405161012a9190610b3f565b60405180910390f35b34801561013f57600080fd5b50610148610466565b6040516101559190610b3f565b60405180910390f35b34801561016a57600080fd5b50610173610501565b6040516101809190610b3f565b60405180910390f35b34801561019557600080fd5b506101b060048036038101906101ab9190610bb8565b610507565b6040516101bd9190610b3f565b60405180910390f35b3480156101d257600080fd5b506101db6105fc565b6040516101e89190610b3f565b60405180910390f35b3480156101fd57600080fd5b50610206610601565b005b34801561021457600080fd5b5061021d610615565b60405161022a9190610c44565b60405180910390f35b34801561023f57600080fd5b5061024861063b565b6040516102559190610c6e565b60405180910390f35b34801561026a57600080fd5b50610273610664565b6040516102809190610ca2565b60405180910390f35b34801561029557600080fd5b5061029e610705565b6040516102ab9190610c6e565b60405180910390f35b3480156102c057600080fd5b506102db60048036038101906102d69190610bb8565b61072b565b6040516102e89190610b3f565b60405180910390f35b3480156102fd57600080fd5b50610306610743565b6040516103139190610b3f565b60405180910390f35b34801561032857600080fd5b5061033161074b565b005b34801561033f57600080fd5b5061035a60048036038101906103559190610bb8565b6108fb565b005b60003403610396576040517f1e61837f00000000000000000000000000000000000000000000000000000000815260040160405180910390fd5b34600460008373ffffffffffffffffffffffffffffffffffffffff1673ffffffffffffffffffffffffffffffffffffffff16815260200190815260200160002060008282546103e59190610cec565b9250508190555050565b60008060009050600083111561045d576000610409610466565b90506000610415610664565b9050600060028360126104289190610cec565b6104329190610d20565b90508181600a6104429190610e87565b8761044d9190610ed2565b6104579190610f43565b93505050505b80915050919050565b6000600360009054906101000a900473ffffffffffffffffffffffffffffffffffffffff1673ffffffffffffffffffffffffffffffffffffffff1663313ce5676040518163ffffffff1660e01b8152600401602060405180830381865afa1580156104d5573d6000803e3d6000fd5b505050506040513d601f19601f820116820180604052508101906104f99190610fad565b60ff16905090565b60015481565b600080600090506000600460008573ffffffffffffffffffffffffffffffffffffffff1673ffffffffffffffffffffffffffffffffffffffff1681526020019081526020016000205411156105f3576000610560610466565b9050600061056c610664565b90506000600283601261057f9190610cec565b6105899190610d20565b905080600a6105989190610e87565b82600460008973ffffffffffffffffffffffffffffffffffffffff1673ffffffffffffffffffffffffffffffffffffffff168152602001908152602001600020546105e39190610ed2565b6105ed9190610f43565b93505050505b80915050919050565b600281565b61060961097e565b61061360006109fc565b565b600360009054906101000a900473ffffffffffffffffffffffffffffffffffffffff1681565b60008060009054906101000a900473ffffffffffffffffffffffffffffffffffffffff16905090565b600080600360009054906101000a900473ffffffffffffffffffffffffffffffffffffffff1673ffffffffffffffffffffffffffffffffffffffff1663feaf968c6040518163ffffffff1660e01b815260040160a060405180830381865afa1580156106d4573d6000803e3d6000fd5b505050506040513d601f19601f820116820180604052508101906106f8919061105d565b5050509150508091505090565b600260009054906101000a900473ffffffffffffffffffffffffffffffffffffffff1681565b60046020528060005260406000206000915090505481565b600047905090565b6000600460003373ffffffffffffffffffffffffffffffffffffffff1673ffffffffffffffffffffffffffffffffffffffff16815260200190815260200160002054036107c4576040517f18306ed400000000000000000000000000000000000000000000000000000000815260040160405180910390fd5b6000600460003373ffffffffffffffffffffffffffffffffffffffff1673ffffffffffffffffffffffffffffffffffffffff1681526020019081526020016000205490506000600460003373ffffffffffffffffffffffffffffffffffffffff1673ffffffffffffffffffffffffffffffffffffffff168152602001908152602001600020819055506000610857610ac0565b73ffffffffffffffffffffffffffffffffffffffff168260405161087a90611109565b60006040518083038185875af1925050503d80600081146108b7576040519150601f19603f3d011682016040523d82523d6000602084013e6108bc565b606091505b50509050806108f7576040517f1e61837f00000000000000000000000000000000000000000000000000000000815260040160405180910390fd5b5050565b61090361097e565b600073ffffffffffffffffffffffffffffffffffffffff168173ffffffffffffffffffffffffffffffffffffffff1603610972576040517f08c379a0000000000000000000000000000000000000000000000000000000008152600401610969906111a1565b60405180910390fd5b61097b816109fc565b50565b610986610ac0565b73ffffffffffffffffffffffffffffffffffffffff166109a461063b565b73ffffffffffffffffffffffffffffffffffffffff16146109fa576040517f08c379a00000000000000000000000000000000000000000000000000000000081526004016109f19061120d565b60405180910390fd5b565b60008060009054906101000a900473ffffffffffffffffffffffffffffffffffffffff169050816000806101000a81548173ffffffffffffffffffffffffffffffffffffffff021916908373ffffffffffffffffffffffffffffffffffffffff1602179055508173ffffffffffffffffffffffffffffffffffffffff168173ffffffffffffffffffffffffffffffffffffffff167f8be0079c531659141344cd1fd0a4f28419497f9722a3daafe3b4186f6b6457e060405160405180910390a35050565b600033905090565b600080fd5b6000819050919050565b610ae081610acd565b8114610aeb57600080fd5b50565b600081359050610afd81610ad7565b92915050565b600060208284031215610b1957610b18610ac8565b5b6000610b2784828501610aee565b91505092915050565b610b3981610acd565b82525050565b6000602082019050610b546000830184610b30565b92915050565b600073ffffffffffffffffffffffffffffffffffffffff82169050919050565b6000610b8582610b5a565b9050919050565b610b9581610b7a565b8114610ba057600080fd5b50565b600081359050610bb281610b8c565b92915050565b600060208284031215610bce57610bcd610ac8565b5b6000610bdc84828501610ba3565b91505092915050565b6000819050919050565b6000610c0a610c05610c0084610b5a565b610be5565b610b5a565b9050919050565b6000610c1c82610bef565b9050919050565b6000610c2e82610c11565b9050919050565b610c3e81610c23565b82525050565b6000602082019050610c596000830184610c35565b92915050565b610c6881610b7a565b82525050565b6000602082019050610c836000830184610c5f565b92915050565b6000819050919050565b610c9c81610c89565b82525050565b6000602082019050610cb76000830184610c93565b92915050565b7f4e487b7100000000000000000000000000000000000000000000000000000000600052601160045260246000fd5b6000610cf782610acd565b9150610d0283610acd565b9250828201905080821115610d1a57610d19610cbd565b5b92915050565b6000610d2b82610acd565b9150610d3683610acd565b9250828203905081811115610d4e57610d4d610cbd565b5b92915050565b60008160011c9050919050565b6000808291508390505b6001851115610dab57808604811115610d8757610d86610cbd565b5b6001851615610d965780820291505b8081029050610da485610d54565b9450610d6b565b94509492505050565b600082610dc45760019050610e80565b81610dd25760009050610e80565b8160018114610de85760028114610df257610e21565b6001915050610e80565b60ff841115610e0457610e03610cbd565b5b8360020a915084821115610e1b57610e1a610cbd565b5b50610e80565b5060208310610133831016604e8410600b8410161715610e565782820a905083811115610e5157610e50610cbd565b5b610e80565b610e638484846001610d61565b92509050818404811115610e7a57610e79610cbd565b5b81810290505b9392505050565b6000610e9282610acd565b9150610e9d83610acd565b9250610eca7fffffffffffffffffffffffffffffffffffffffffffffffffffffffffffffffff8484610db4565b905092915050565b6000610edd82610acd565b9150610ee883610acd565b9250828202610ef681610acd565b91508282048414831517610f0d57610f0c610cbd565b5b5092915050565b7f4e487b7100000000000000000000000000000000000000000000000000000000600052601260045260246000fd5b6000610f4e82610acd565b9150610f5983610acd565b925082610f6957610f68610f14565b5b828204905092915050565b600060ff82169050919050565b610f8a81610f74565b8114610f9557600080fd5b50565b600081519050610fa781610f81565b92915050565b600060208284031215610fc357610fc2610ac8565b5b6000610fd184828501610f98565b91505092915050565b600069ffffffffffffffffffff82169050919050565b610ff981610fda565b811461100457600080fd5b50565b60008151905061101681610ff0565b92915050565b61102581610c89565b811461103057600080fd5b50565b6000815190506110428161101c565b92915050565b60008151905061105781610ad7565b92915050565b600080600080600060a0868803121561107957611078610ac8565b5b600061108788828901611007565b955050602061109888828901611033565b94505060406110a988828901611048565b93505060606110ba88828901611048565b92505060806110cb88828901611007565b9150509295509295909350565b600081905092915050565b50565b60006110f36000836110d8565b91506110fe826110e3565b600082019050919050565b6000611114826110e6565b9150819050919050565b600082825260208201905092915050565b7f4f776e61626c653a206e6577206f776e657220697320746865207a65726f206160008201527f6464726573730000000000000000000000000000000000000000000000000000602082015250565b600061118b60268361111e565b91506111968261112f565b604082019050919050565b600060208201905081810360008301526111ba8161117e565b9050919050565b7f4f776e61626c653a2063616c6c6572206973206e6f7420746865206f776e6572600082015250565b60006111f760208361111e565b9150611202826111c1565b602082019050919050565b60006020820190508181036000830152611226816111ea565b905091905056fea264697066735822122028d29468306caa62a88a80c6786b231beb23c13df0f58d279fe9f2e43ececb8c64736f6c63430008130033",
  "immutableReferences": {},
  "source": "// SPDX-License-Identifier: MIT\npragma solidity ^0.8.19;\n\n\nimport \"@chainlink/contracts/src/v0.8/interfaces/AggregatorV3Interface.sol\";\nimport \"@openzeppelin/contracts/access/Ownable.sol\";\n//import \"@openzeppelin/contracts/token/ERC20/utils/safeERC20.sol\";\n\n\ncontract Collector is Ownable {\n    error noEthDeposited();\n    error noEthToWithdraw();\n    error noEthSent();\n   \n    uint public constant usdDecimals = 2;\n    uint public ownerEthAmountToWithdraw;\n\n    address public oracleEthUsdPrice;\n\n    AggregatorV3Interface public ethUsdOracle;\n\n    mapping(address user => uint256 amount) public userEthDeposits;\n\n    /**\n     * Network: ETH mainnet\n     * Aggregator: ETH/USD\n     * Address: 0x5f4eC3Df9cbd43714FE2740f5E3616155c5b8419\n     */\n    constructor(address clEthUsd) {\n        oracleEthUsdPrice = clEthUsd;\n\n        ethUsdOracle = AggregatorV3Interface(oracleEthUsdPrice);\n    }\n\n    /**\n     * Returns the latest price\n     */\n     function getLatestPrice() public view returns (int) {\n        // prettier-ignore\n        (\n            /* uint80 round ID */,\n            int price,\n            /*uint startedAt */,\n            /*uint timeStamp */,\n            /*uint80 answeredInRound */\n        ) = ethUsdOracle.latestRoundData();\n        return price;\n    }\n\n    /** Native coins (ETH, Matic, avax,...) */\n    receive() external payable {\n        registeredUserDeposit(msg.sender);\n    }\n\n    function registeredUserDeposit(address sender) internal {\n        if (msg.value == 0) {\n            revert noEthSent();\n        }\n        userEthDeposits[sender] += msg.value;\n    }\n\n    function getPriceDecimals() public view returns (uint) {\n        return uint(ethUsdOracle.decimals());\n    }\n\n    function convertEthInUSD(address user) public view returns (uint) {\n        uint userUSDDeposit = 0;\n        if (userEthDeposits[user] > 0) {\n            uint ethPriceDecimals = getPriceDecimals();\n            uint ethPrice = uint(getLatestPrice());     // scaled by 10^ethPriceDecimals (10^8)\n            uint divDecs = 18 + ethPriceDecimals - usdDecimals;\n            userUSDDeposit = userEthDeposits[user] * ethPrice / (10 ** divDecs);    // scaled by 10^26 / 10^24 = 10^2\n        }\n        return userUSDDeposit;\n    }\n\n    function convertUSDInETH(uint usdAmount) public view returns (uint) {\n        uint convertAmountInEth = 0;\n        if (usdAmount> 0) {\n            uint ethPriceDecimals = getPriceDecimals();\n            uint ethPrice = uint(getLatestPrice()); // scaled by 10^ethPriceDecimals (10^8)\n            uint mulDecs = 18 + ethPriceDecimals - usdDecimals;\n            convertAmountInEth = usdAmount * (10 ** mulDecs) / ethPrice;    // scaled by 10^26 / 10^8 = 10^18\n        }\n\n        return convertAmountInEth;\n    }\n\n    /** this balance in native coins and token */\n    function getNativeCoinsBalance() external view returns (uint256) {\n        return address(this).balance;\n    }\n\n    /** Withdraws */\n    function userETHWithdraw() external {\n        if(userEthDeposits[msg.sender] == 0) {\n            revert noEthDeposited();\n        }\n        uint tempValue = userEthDeposits[msg.sender];\n        userEthDeposits[msg.sender] = 0;\n\n        (bool sent, ) = payable(_msgSender()).call{value: tempValue}(\"\");\n        if (!sent) {\n            revert noEthSent();\n        }\n    }\n}",
  "sourcePath": "/Users/alicecaboni/Desktop/Collector_Final/contracts/Collector.sol",
  "compiler": {
    "name": "solc",
    "version": "0.8.19+commit.7dd6d404.Emscripten.clang"
  },
  "schemaVersion": "3.4.8",
  "updatedAt": "2023-08-08T18:51:41.599Z",
  "devdoc": {
    "kind": "dev",
    "methods": {
      "owner()": {
        "details": "Returns the address of the current owner."
      },
      "renounceOwnership()": {
        "details": "Leaves the contract without owner. It will not be possible to call `onlyOwner` functions. Can only be called by the current owner. NOTE: Renouncing ownership will leave the contract without an owner, thereby disabling any functionality that is only available to the owner."
      },
      "transferOwnership(address)": {
        "details": "Transfers ownership of the contract to a new account (`newOwner`). Can only be called by the current owner."
      }
    },
    "version": 1
  },
  "userdoc": {
    "kind": "user",
    "methods": {
      "constructor": {
        "notice": "Network: ETH mainnet Aggregator: ETH/USD Address: 0x5f4eC3Df9cbd43714FE2740f5E3616155c5b8419"
      },
      "getLatestPrice()": {
        "notice": "Returns the latest price"
      },
      "getNativeCoinsBalance()": {
        "notice": "this balance in native coins and token "
      },
      "userETHWithdraw()": {
        "notice": "Withdraws "
      }
    },
    "version": 1
  }
}